{"abi":[{"type":"constructor","inputs":[],"stateMutability":"nonpayable"},{"type":"function","name":"addValidValues","inputs":[{"name":"value","type":"uint256","internalType":"uint256"}],"outputs":[],"stateMutability":"nonpayable"},{"type":"function","name":"approve","inputs":[{"name":"to","type":"address","internalType":"address"},{"name":"tokenId","type":"uint256","internalType":"uint256"}],"outputs":[],"stateMutability":"nonpayable"},{"type":"function","name":"balanceOf","inputs":[{"name":"owner","type":"address","internalType":"address"}],"outputs":[{"name":"","type":"uint256","internalType":"uint256"}],"stateMutability":"view"},{"type":"function","name":"buy","inputs":[{"name":"value","type":"uint256","internalType":"uint256"},{"name":"amount","type":"uint256","internalType":"uint256"}],"outputs":[],"stateMutability":"nonpayable"},{"type":"function","name":"buyFee","inputs":[],"outputs":[{"name":"","type":"uint16","internalType":"uint16"}],"stateMutability":"view"},{"type":"function","name":"canBuy","inputs":[],"outputs":[{"name":"","type":"bool","internalType":"bool"}],"stateMutability":"view"},{"type":"function","name":"canClaim","inputs":[],"outputs":[{"name":"","type":"bool","internalType":"bool"}],"stateMutability":"view"},{"type":"function","name":"canTrade","inputs":[],"outputs":[{"name":"","type":"bool","internalType":"bool"}],"stateMutability":"view"},{"type":"function","name":"claim","inputs":[{"name":"listTokenId","type":"uint256[]","internalType":"uint256[]"}],"outputs":[],"stateMutability":"nonpayable"},{"type":"function","name":"feesCollector","inputs":[],"outputs":[{"name":"","type":"address","internalType":"address"}],"stateMutability":"view"},{"type":"function","name":"fundsCollector","inputs":[],"outputs":[{"name":"","type":"address","internalType":"address"}],"stateMutability":"view"},{"type":"function","name":"fundsToken","inputs":[],"outputs":[{"name":"","type":"address","internalType":"contract IERC20"}],"stateMutability":"view"},{"type":"function","name":"getApproved","inputs":[{"name":"tokenId","type":"uint256","internalType":"uint256"}],"outputs":[{"name":"","type":"address","internalType":"address"}],"stateMutability":"view"},{"type":"function","name":"isApprovedForAll","inputs":[{"name":"owner","type":"address","internalType":"address"},{"name":"operator","type":"address","internalType":"address"}],"outputs":[{"name":"","type":"bool","internalType":"bool"}],"stateMutability":"view"},{"type":"function","name":"listTokensOnSale","inputs":[{"name":"","type":"uint256","internalType":"uint256"}],"outputs":[{"name":"","type":"uint256","internalType":"uint256"}],"stateMutability":"view"},{"type":"function","name":"maxBatchCount","inputs":[],"outputs":[{"name":"","type":"uint16","internalType":"uint16"}],"stateMutability":"view"},{"type":"function","name":"maxValueToRaise","inputs":[],"outputs":[{"name":"","type":"uint256","internalType":"uint256"}],"stateMutability":"view"},{"type":"function","name":"name","inputs":[],"outputs":[{"name":"","type":"string","internalType":"string"}],"stateMutability":"view"},{"type":"function","name":"owner","inputs":[],"outputs":[{"name":"","type":"address","internalType":"address"}],"stateMutability":"view"},{"type":"function","name":"ownerOf","inputs":[{"name":"tokenId","type":"uint256","internalType":"uint256"}],"outputs":[{"name":"","type":"address","internalType":"address"}],"stateMutability":"view"},{"type":"function","name":"profitToPay","inputs":[],"outputs":[{"name":"","type":"uint32","internalType":"uint32"}],"stateMutability":"view"},{"type":"function","name":"putOnSale","inputs":[{"name":"tokenId","type":"uint256","internalType":"uint256"},{"name":"price","type":"uint256","internalType":"uint256"}],"outputs":[],"stateMutability":"nonpayable"},{"type":"function","name":"renounceOwnership","inputs":[],"outputs":[],"stateMutability":"nonpayable"},{"type":"function","name":"safeTransferFrom","inputs":[{"name":"","type":"address","internalType":"address"},{"name":"","type":"address","internalType":"address"},{"name":"","type":"uint256","internalType":"uint256"}],"outputs":[],"stateMutability":"pure"},{"type":"function","name":"safeTransferFrom","inputs":[{"name":"","type":"address","internalType":"address"},{"name":"","type":"address","internalType":"address"},{"name":"","type":"uint256","internalType":"uint256"},{"name":"","type":"bytes","internalType":"bytes"}],"outputs":[],"stateMutability":"pure"},{"type":"function","name":"setApprovalForAll","inputs":[{"name":"operator","type":"address","internalType":"address"},{"name":"approved","type":"bool","internalType":"bool"}],"outputs":[],"stateMutability":"nonpayable"},{"type":"function","name":"setBuyFee","inputs":[{"name":"_buyFee","type":"uint16","internalType":"uint16"}],"outputs":[],"stateMutability":"nonpayable"},{"type":"function","name":"setCanBuy","inputs":[{"name":"_canBuy","type":"bool","internalType":"bool"}],"outputs":[],"stateMutability":"nonpayable"},{"type":"function","name":"setCanClaim","inputs":[{"name":"_canClaim","type":"bool","internalType":"bool"}],"outputs":[],"stateMutability":"nonpayable"},{"type":"function","name":"setCanTrade","inputs":[{"name":"_canTrade","type":"bool","internalType":"bool"}],"outputs":[],"stateMutability":"nonpayable"},{"type":"function","name":"setFeesCollector","inputs":[{"name":"_address","type":"address","internalType":"address"}],"outputs":[],"stateMutability":"nonpayable"},{"type":"function","name":"setFundsCollector","inputs":[{"name":"_address","type":"address","internalType":"address"}],"outputs":[],"stateMutability":"nonpayable"},{"type":"function","name":"setFundsToken","inputs":[{"name":"token","type":"address","internalType":"address"}],"outputs":[],"stateMutability":"nonpayable"},{"type":"function","name":"setMaxBatchCount","inputs":[{"name":"_maxBatchCount","type":"uint16","internalType":"uint16"}],"outputs":[],"stateMutability":"nonpayable"},{"type":"function","name":"setMaxValueToRaise","inputs":[{"name":"_maxValueToRaise","type":"uint256","internalType":"uint256"}],"outputs":[],"stateMutability":"nonpayable"},{"type":"function","name":"setProfitToPay","inputs":[{"name":"_profitToPay","type":"uint32","internalType":"uint32"}],"outputs":[],"stateMutability":"nonpayable"},{"type":"function","name":"setTradeFee","inputs":[{"name":"_tradeFee","type":"uint16","internalType":"uint16"}],"outputs":[],"stateMutability":"nonpayable"},{"type":"function","name":"supportsInterface","inputs":[{"name":"interfaceId","type":"bytes4","internalType":"bytes4"}],"outputs":[{"name":"","type":"bool","internalType":"bool"}],"stateMutability":"view"},{"type":"function","name":"symbol","inputs":[],"outputs":[{"name":"","type":"string","internalType":"string"}],"stateMutability":"view"},{"type":"function","name":"tokenByIndex","inputs":[{"name":"index","type":"uint256","internalType":"uint256"}],"outputs":[{"name":"","type":"uint256","internalType":"uint256"}],"stateMutability":"view"},{"type":"function","name":"tokenOfOwnerByIndex","inputs":[{"name":"owner","type":"address","internalType":"address"},{"name":"index","type":"uint256","internalType":"uint256"}],"outputs":[{"name":"","type":"uint256","internalType":"uint256"}],"stateMutability":"view"},{"type":"function","name":"tokenURI","inputs":[{"name":"tokenId","type":"uint256","internalType":"uint256"}],"outputs":[{"name":"","type":"string","internalType":"string"}],"stateMutability":"view"},{"type":"function","name":"tokensOnSale","inputs":[{"name":"","type":"uint256","internalType":"uint256"}],"outputs":[{"name":"onSale","type":"bool","internalType":"bool"},{"name":"price","type":"uint256","internalType":"uint256"}],"stateMutability":"view"},{"type":"function","name":"totalSupply","inputs":[],"outputs":[{"name":"","type":"uint256","internalType":"uint256"}],"stateMutability":"view"},{"type":"function","name":"totalValue","inputs":[],"outputs":[{"name":"","type":"uint256","internalType":"uint256"}],"stateMutability":"view"},{"type":"function","name":"trade","inputs":[{"name":"tokenId","type":"uint256","internalType":"uint256"}],"outputs":[],"stateMutability":"nonpayable"},{"type":"function","name":"tradeFee","inputs":[],"outputs":[{"name":"","type":"uint16","internalType":"uint16"}],"stateMutability":"view"},{"type":"function","name":"transferFrom","inputs":[{"name":"","type":"address","internalType":"address"},{"name":"","type":"address","internalType":"address"},{"name":"","type":"uint256","internalType":"uint256"}],"outputs":[],"stateMutability":"pure"},{"type":"function","name":"transferOwnership","inputs":[{"name":"newOwner","type":"address","internalType":"address"}],"outputs":[],"stateMutability":"nonpayable"},{"type":"function","name":"validValues","inputs":[{"name":"","type":"uint256","internalType":"uint256"}],"outputs":[{"name":"","type":"bool","internalType":"bool"}],"stateMutability":"view"},{"type":"function","name":"values","inputs":[{"name":"","type":"uint256","internalType":"uint256"}],"outputs":[{"name":"","type":"uint256","internalType":"uint256"}],"stateMutability":"view"},{"type":"event","name":"Approval","inputs":[{"name":"owner","type":"address","indexed":true,"internalType":"address"},{"name":"approved","type":"address","indexed":true,"internalType":"address"},{"name":"tokenId","type":"uint256","indexed":true,"internalType":"uint256"}],"anonymous":false},{"type":"event","name":"ApprovalForAll","inputs":[{"name":"owner","type":"address","indexed":true,"internalType":"address"},{"name":"operator","type":"address","indexed":true,"internalType":"address"},{"name":"approved","type":"bool","indexed":false,"internalType":"bool"}],"anonymous":false},{"type":"event","name":"Buy","inputs":[{"name":"buyer","type":"address","indexed":true,"internalType":"address"},{"name":"tokenId","type":"uint256","indexed":true,"internalType":"uint256"},{"name":"value","type":"uint256","indexed":false,"internalType":"uint256"}],"anonymous":false},{"type":"event","name":"Claim","inputs":[],"anonymous":false},{"type":"event","name":"OwnershipTransferred","inputs":[{"name":"previousOwner","type":"address","indexed":true,"internalType":"address"},{"name":"newOwner","type":"address","indexed":true,"internalType":"address"}],"anonymous":false},{"type":"event","name":"PutOnSale","inputs":[{"name":"tokenId","type":"uint256","indexed":true,"internalType":"uint256"},{"name":"price","type":"uint256","indexed":false,"internalType":"uint256"}],"anonymous":false},{"type":"event","name":"Trade","inputs":[],"anonymous":false},{"type":"event","name":"Transfer","inputs":[{"name":"from","type":"address","indexed":true,"internalType":"address"},{"name":"to","type":"address","indexed":true,"internalType":"address"},{"name":"tokenId","type":"uint256","indexed":true,"internalType":"uint256"}],"anonymous":false}],"bytecode":{"object":"0x60806040523480156200001157600080fd5b506040518060400160405280600f81526020016e10dc9e5c1d1bd0d85b5c1bc8139195608a1b8152506040518060400160405280600581526020016410d0d3919560da1b8152508160009081620000699190620001b2565b506001620000788282620001b2565b505050620000956200008f620000b760201b60201c565b620000bb565b6001600b55601580546001600160501b0319166414000000001790556200027e565b3390565b600a80546001600160a01b038381166001600160a01b0319831681179093556040519116919082907f8be0079c531659141344cd1fd0a4f28419497f9722a3daafe3b4186f6b6457e090600090a35050565b634e487b7160e01b600052604160045260246000fd5b600181811c908216806200013857607f821691505b6020821081036200015957634e487b7160e01b600052602260045260246000fd5b50919050565b601f821115620001ad57600081815260208120601f850160051c81016020861015620001885750805b601f850160051c820191505b81811015620001a95782815560010162000194565b5050505b505050565b81516001600160401b03811115620001ce57620001ce6200010d565b620001e681620001df845462000123565b846200015f565b602080601f8311600181146200021e5760008415620002055750858301515b600019600386901b1c1916600185901b178555620001a9565b600085815260208120601f198616915b828110156200024f578886015182559484019460019091019084016200022e565b50858210156200026e5787850151600019600388901b60f8161c191681555b5050505050600190811b01905550565b6130d8806200028e6000396000f3fe608060405234801561001057600080fd5b50600436106102f15760003560e01c80636dc7a6271161019d578063c6584081116100e9578063dc62c704116100a2578063e985e9c51161007c578063e985e9c5146106c8578063f2fde38b14610704578063fcad5ce314610717578063ff65226c1461074357600080fd5b8063dc62c7041461067f578063df1dd826146106a2578063e24b7139146106b557600080fd5b8063c658408114610617578063c87b56dd1461062a578063c8a4ee9f1461063d578063d4c3eea014610650578063d5d603f614610659578063d6febde81461066c57600080fd5b80638da5cb5b116101565780639fdccfb8116101305780639fdccfb8146105d0578063a22cb465146105e3578063b88d4fde146105f6578063c503101e1461060457600080fd5b80638da5cb5b146105a457806395d89b41146105b55780639cf160f6146105bd57600080fd5b80636dc7a6271461054657806370a082311461055a57806370c476711461056d578063715018a6146105805780637198ba74146105885780637b25f3521461059b57600080fd5b806336f7992b1161025c5780634f6ccce7116102155780636352211e116101ef5780636352211e146104f0578063637dd7811461050357806363f04b15146105195780636ba4c1381461053357600080fd5b80634f6ccce7146104aa578063505546e7146104bd5780635e383d21146104d057600080fd5b806336f7992b14610450578063373071f2146104635780633a8c33381461047657806342842e0e14610398578063432bd3f814610489578063470624021461049c57600080fd5b806323b872dd116102ae57806323b872dd1461039857806324bcdfbd146103ab5780632c06862b146103d25780632f05205c146103e55780632f745c59146103f9578063308b4c971461040c57600080fd5b806301ffc9a7146102f657806306fdde031461031e578063081812fc14610333578063095ea7b31461035e5780630f959bb71461037357806318160ddd14610386575b600080fd5b610309610304366004612a45565b610757565b60405190151581526020015b60405180910390f35b610326610768565b6040516103159190612ab2565b610346610341366004612ac5565b6107fa565b6040516001600160a01b039091168152602001610315565b61037161036c366004612afa565b610887565b005b610371610381366004612b32565b61099c565b6008545b604051908152602001610315565b6103716103a6366004612b4f565b6109e4565b6015546103bf9062010000900461ffff1681565b60405161ffff9091168152602001610315565b6103716103e0366004612b32565b610a1a565b60125461030990600160b01b900460ff1681565b61038a610407366004612afa565b610a62565b61043961041a366004612ac5565b600f602052600090815260409020805460019091015460ff9091169082565b604080519215158352602083019190915201610315565b61037161045e366004612b8b565b610af8565b610371610471366004612bad565b610c1e565b601154610346906001600160a01b031681565b610371610497366004612bc8565b610cb2565b6015546103bf9061ffff1681565b61038a6104b8366004612ac5565b610d00565b61038a6104cb366004612ac5565b610d93565b61038a6104de366004612ac5565b600d6020526000908152604090205481565b6103466104fe366004612ac5565b610db4565b6015546103bf90640100000000900461ffff1681565b60155461034690600160501b90046001600160a01b031681565b610371610541366004612bec565b610e2b565b60125461030990600160a81b900460ff1681565b61038a610568366004612bad565b6111fd565b61037161057b366004612bc8565b611284565b6103716112c6565b610371610596366004612bad565b6112fc565b61038a60145481565b600a546001600160a01b0316610346565b6103266113ad565b601254610346906001600160a01b031681565b6103716105de366004612bc8565b6113bc565b6103716105f1366004612c61565b611406565b6103716103a6366004612cae565b610371610612366004612b32565b611415565b610371610625366004612ac5565b61145d565b610326610638366004612ac5565b61148c565b61037161064b366004612ac5565b611564565b61038a60135481565b610371610667366004612d8a565b6115a9565b61037161067a366004612b8b565b6115fc565b61030961068d366004612ac5565b600e6020526000908152604090205460ff1681565b6103716106b0366004612ac5565b6119f2565b6103716106c3366004612bad565b611d60565b6103096106d6366004612db0565b6001600160a01b03918216600090815260056020908152604080832093909416825291909152205460ff1690565b610371610712366004612bad565b611df4565b60155461072e90600160301b900463ffffffff1681565b60405163ffffffff9091168152602001610315565b60125461030990600160a01b900460ff1681565b600061076282611e8f565b92915050565b60606000805461077790612de3565b80601f01602080910402602001604051908101604052809291908181526020018280546107a390612de3565b80156107f05780601f106107c5576101008083540402835291602001916107f0565b820191906000526020600020905b8154815290600101906020018083116107d357829003601f168201915b5050505050905090565b600061080582611eb4565b61086b5760405162461bcd60e51b815260206004820152602c60248201527f4552433732313a20617070726f76656420717565727920666f72206e6f6e657860448201526b34b9ba32b73a103a37b5b2b760a11b60648201526084015b60405180910390fd5b506000908152600460205260409020546001600160a01b031690565b600061089282610db4565b9050806001600160a01b0316836001600160a01b0316036108ff5760405162461bcd60e51b815260206004820152602160248201527f4552433732313a20617070726f76616c20746f2063757272656e74206f776e656044820152603960f91b6064820152608401610862565b336001600160a01b038216148061091b575061091b81336106d6565b61098d5760405162461bcd60e51b815260206004820152603860248201527f4552433732313a20617070726f76652063616c6c6572206973206e6f74206f7760448201527f6e6572206e6f7220617070726f76656420666f7220616c6c00000000000000006064820152608401610862565b6109978383611ed1565b505050565b600a546001600160a01b031633146109c65760405162461bcd60e51b815260040161086290612e1d565b60128054911515600160b01b0260ff60b01b19909216919091179055565b60405162461bcd60e51b815260206004820152600b60248201526a139bdd08105b1b1bddd95960aa1b6044820152606401610862565b600a546001600160a01b03163314610a445760405162461bcd60e51b815260040161086290612e1d565b60128054911515600160a01b0260ff60a01b19909216919091179055565b6000610a6d836111fd565b8210610acf5760405162461bcd60e51b815260206004820152602b60248201527f455243373231456e756d657261626c653a206f776e657220696e646578206f7560448201526a74206f6620626f756e647360a81b6064820152608401610862565b506001600160a01b03919091166000908152600660209081526040808320938352929052205490565b601254600160b01b900460ff16610b425760405162461bcd60e51b815260206004820152600e60248201526d151c98591948191a5cd8589b195960921b6044820152606401610862565b610b4b82611eb4565b610b675760405162461bcd60e51b815260040161086290612e52565b33610b7183610db4565b6001600160a01b031614610bb45760405162461bcd60e51b815260206004820152600a60248201526927b7363c9037bbb732b960b11b6044820152606401610862565b6000828152600f60205260409020805460ff1916600190811782558101829055610bdf601084611f3f565b827f7c11ba8301c87f8a6d59779bcbe2b7446e865bd1a4359a69e5c400212e0a579583604051610c1191815260200190565b60405180910390a2505050565b600a546001600160a01b03163314610c485760405162461bcd60e51b815260040161086290612e1d565b6001600160a01b038116610c905760405162461bcd60e51b815260206004820152600f60248201526e496e76616c6964206164647265737360881b6044820152606401610862565b601280546001600160a01b0319166001600160a01b0392909216919091179055565b600a546001600160a01b03163314610cdc5760405162461bcd60e51b815260040161086290612e1d565b6015805461ffff9092166401000000000265ffff0000000019909216919091179055565b6000610d0b60085490565b8210610d6e5760405162461bcd60e51b815260206004820152602c60248201527f455243373231456e756d657261626c653a20676c6f62616c20696e646578206f60448201526b7574206f6620626f756e647360a01b6064820152608401610862565b60088281548110610d8157610d81612e79565b90600052602060002001549050919050565b60108181548110610da357600080fd5b600091825260209091200154905081565b6000818152600260205260408120546001600160a01b0316806107625760405162461bcd60e51b815260206004820152602960248201527f4552433732313a206f776e657220717565727920666f72206e6f6e657869737460448201526832b73a103a37b5b2b760b91b6064820152608401610862565b6002600b5403610e4d5760405162461bcd60e51b815260040161086290612e8f565b6002600b55601254600160a81b900460ff16610e9c5760405162461bcd60e51b815260206004820152600e60248201526d10db185a5b48191a5cd8589b195960921b6044820152606401610862565b8015801590610eb95750601554640100000000900461ffff168111155b610efb5760405162461bcd60e51b8152602060048201526013602482015272092dcecc2d8d2c840d8d2e6e840d8cadccee8d606b1b6044820152606401610862565b600080805b838110156110e057610f29858583818110610f1d57610f1d612e79565b90506020020135611eb4565b610f455760405162461bcd60e51b815260040161086290612e52565b33610f67868684818110610f5b57610f5b612e79565b90506020020135610db4565b6001600160a01b031614610fb45760405162461bcd60e51b81526020600482015260146024820152734f6e6c79206f776e65722063616e20436c61696d60601b6044820152606401610862565b600d6000868684818110610fca57610fca612e79565b9050602002013581526020019081526020016000205483610feb9190612edc565b92506000600d600087878581811061100557611005612e79565b90506020020135815260200190815260200160002081905550600f600086868481811061103457611034612e79565b602090810292909201358352508101919091526040016000908120805460ff1916815560018101919091559150611084601086868481811061107857611078612e79565b90506020020135611f6f565b6110a585858381811061109957611099612e79565b90506020020135611ffd565b6040517f3158952e7c791deb52750003dbcb0fb942106f2bcd1005fb946a83cd6646fdc490600090a1806110d881612eef565b915050610f00565b5081601360008282546110f39190612f08565b90915550506015546000906127109061111990600160301b900463ffffffff1685612f1b565b6111239190612f48565b61112d9084612edc565b6015546011546040516323b872dd60e01b81529293506001600160a01b03600160501b9092048216926323b872dd9261116e92169033908690600401612f5c565b6020604051808303816000875af115801561118d573d6000803e3d6000fd5b505050506040513d601f19601f820116820180604052508101906111b19190612f80565b6111f15760405162461bcd60e51b815260206004820152601160248201527063616e6e6f742073656e642066756e647360781b6044820152606401610862565b50506001600b55505050565b60006001600160a01b0382166112685760405162461bcd60e51b815260206004820152602a60248201527f4552433732313a2062616c616e636520717565727920666f7220746865207a65604482015269726f206164647265737360b01b6064820152608401610862565b506001600160a01b031660009081526003602052604090205490565b600a546001600160a01b031633146112ae5760405162461bcd60e51b815260040161086290612e1d565b6015805461ffff191661ffff92909216919091179055565b600a546001600160a01b031633146112f05760405162461bcd60e51b815260040161086290612e1d565b6112fa60006120a4565b565b600a546001600160a01b031633146113265760405162461bcd60e51b815260040161086290612e1d565b6001600160a01b03811661136c5760405162461bcd60e51b815260206004820152600d60248201526c24b73b30b634b2103a37b5b2b760991b6044820152606401610862565b601580546001600160a01b03909216600160501b027fffff0000000000000000000000000000000000000000ffffffffffffffffffff909216919091179055565b60606001805461077790612de3565b600a546001600160a01b031633146113e65760405162461bcd60e51b815260040161086290612e1d565b6015805461ffff909216620100000263ffff000019909216919091179055565b6114113383836120f6565b5050565b600a546001600160a01b0316331461143f5760405162461bcd60e51b815260040161086290612e1d565b60128054911515600160a81b0260ff60a81b19909216919091179055565b600a546001600160a01b031633146114875760405162461bcd60e51b815260040161086290612e1d565b601455565b606061149782611eb4565b6114fb5760405162461bcd60e51b815260206004820152602f60248201527f4552433732314d657461646174613a2055524920717565727920666f72206e6f60448201526e3732bc34b9ba32b73a103a37b5b2b760891b6064820152608401610862565b600061151260408051602081019091526000815290565b90506000815111611532576040518060200160405280600081525061155d565b8061153c846121c4565b60405160200161154d929190612f9d565b6040516020818303038152906040525b9392505050565b600a546001600160a01b0316331461158e5760405162461bcd60e51b815260040161086290612e1d565b6000908152600e60205260409020805460ff19166001179055565b600a546001600160a01b031633146115d35760405162461bcd60e51b815260040161086290612e1d565b6015805463ffffffff909216600160301b0269ffffffff00000000000019909216919091179055565b6002600b540361161e5760405162461bcd60e51b815260040161086290612e8f565b6002600b55601254600160a01b900460ff1661166b5760405162461bcd60e51b815260206004820152600c60248201526b109d5e48191a5cd8589b195960a21b6044820152606401610862565b6000811180156116895750601554640100000000900461ffff168111155b6116c65760405162461bcd60e51b815260206004820152600e60248201526d125b9d985b1a5908185b5bdd5b9d60921b6044820152606401610862565b6000828152600e602052604090205460ff166117145760405162461bcd60e51b815260206004820152600d60248201526c496e76616c69642076616c756560981b6044820152606401610862565b6014546117218284612f1b565b60135461172e9190612edc565b111561176b5760405162461bcd60e51b815260206004820152600c60248201526b10d85c08195e18d95959195960a21b6044820152606401610862565b6117758183612f1b565b601360008282546117869190612edc565b90915550600090505b818110156118175760006117a2600c5490565b6000818152600d6020526040902085905590506117bf33826122cd565b604051848152819033907f1cbc5ab135991bd2b6a4b034a04aa2aa086dac1371cb9b16b8b5e2ed6b036bed9060200160405180910390a3611804600c80546001019055565b508061180f81612eef565b91505061178f565b50601554600160501b90046001600160a01b03166323b872dd336011546001600160a01b03166118478587612f1b565b6040518463ffffffff1660e01b815260040161186593929190612f5c565b6020604051808303816000875af1158015611884573d6000803e3d6000fd5b505050506040513d601f19601f820116820180604052508101906118a89190612f80565b6118f45760405162461bcd60e51b815260206004820152601860248201527f43616e6e6f742073656e642066756e647320746f6b656e7300000000000000006044820152606401610862565b6015546012546001600160a01b03600160501b83048116926323b872dd92339216906127109061ffff166119288789612f1b565b6119329190612f1b565b61193c9190612f48565b6040518463ffffffff1660e01b815260040161195a93929190612f5c565b6020604051808303816000875af1158015611979573d6000803e3d6000fd5b505050506040513d601f19601f8201168201806040525081019061199d9190612f80565b6119e95760405162461bcd60e51b815260206004820152601760248201527f43616e6e6f742073656e64206665657320746f6b656e730000000000000000006044820152606401610862565b50506001600b55565b6002600b5403611a145760405162461bcd60e51b815260040161086290612e8f565b6002600b55601254600160b01b900460ff16611a635760405162461bcd60e51b815260206004820152600e60248201526d151c98591948191a5cd8589b195960921b6044820152606401610862565b611a6c81611eb4565b611a885760405162461bcd60e51b815260040161086290612e52565b6000611a9382610db4565b9050336001600160a01b03821603611ae35760405162461bcd60e51b8152602060048201526013602482015272213abcb2b91034b9903a34329029b2b63632b960691b6044820152606401610862565b6000828152600f60205260409020805460ff16611b365760405162461bcd60e51b8152602060048201526011602482015270546f6b656e206e6f74204f6e2053616c6560781b6044820152606401610862565b601554600160501b90046001600160a01b03166323b872dd338484600101546040518463ffffffff1660e01b8152600401611b7393929190612f5c565b6020604051808303816000875af1158015611b92573d6000803e3d6000fd5b505050506040513d601f19601f82011682018060405250810190611bb69190612f80565b611bf65760405162461bcd60e51b815260206004820152601160248201527043616e6e6f742073656e6420707269636560781b6044820152606401610862565b601554600160501b90046001600160a01b03166323b872dd336012546015546000888152600d60205260409020546001600160a01b039092169161271091611c49916201000090910461ffff1690612f1b565b611c539190612f48565b6040518463ffffffff1660e01b8152600401611c7193929190612f5c565b6020604051808303816000875af1158015611c90573d6000803e3d6000fd5b505050506040513d601f19601f82011682018060405250810190611cb49190612f80565b611cf85760405162461bcd60e51b815260206004820152601560248201527443616e6e6f742073656e642074726164652066656560581b6044820152606401610862565b6040517f4d9fb121ff026117c6a189fb134e50c5ce35e02da75daccf415b8f8c31f3584a90600090a1611d3c823385604051806020016040528060008152506122e7565b805460ff1916815560006001820155611d56601084611f6f565b50506001600b5550565b600a546001600160a01b03163314611d8a5760405162461bcd60e51b815260040161086290612e1d565b6001600160a01b038116611dd25760405162461bcd60e51b815260206004820152600f60248201526e496e76616c6964206164647265737360881b6044820152606401610862565b601180546001600160a01b0319166001600160a01b0392909216919091179055565b600a546001600160a01b03163314611e1e5760405162461bcd60e51b815260040161086290612e1d565b6001600160a01b038116611e835760405162461bcd60e51b815260206004820152602660248201527f4f776e61626c653a206e6577206f776e657220697320746865207a65726f206160448201526564647265737360d01b6064820152608401610862565b611e8c816120a4565b50565b60006001600160e01b0319821663780e9d6360e01b1480610762575061076282612320565b6000908152600260205260409020546001600160a01b0316151590565b600081815260046020526040902080546001600160a01b0319166001600160a01b0384169081179091558190611f0682610db4565b6001600160a01b03167f8c5be1e5ebec7d5bd14f71427d1e84f3dd0314c0f7b2291e5b200ac8c7c3b92560405160405180910390a45050565b6000611f4b8383612370565b83549091508103610997575081546001810183556000928352602090922090910155565b6000611f7b8383612370565b83549091508110156109975782548390611f9790600190612f08565b81548110611fa757611fa7612e79565b9060005260206000200154838281548110611fc457611fc4612e79565b906000526020600020018190555082805480611fe257611fe2612fcc565b60019003818190600052602060002001600090559055505050565b600061200882610db4565b9050612016816000846123c2565b612021600083611ed1565b6001600160a01b038116600090815260036020526040812080546001929061204a908490612f08565b909155505060008281526002602052604080822080546001600160a01b0319169055518391906001600160a01b038416907fddf252ad1be2c89b69c2b068fc378daa952ba7f163c4a11628f55a4df523b3ef908390a45050565b600a80546001600160a01b038381166001600160a01b0319831681179093556040519116919082907f8be0079c531659141344cd1fd0a4f28419497f9722a3daafe3b4186f6b6457e090600090a35050565b816001600160a01b0316836001600160a01b0316036121575760405162461bcd60e51b815260206004820152601960248201527f4552433732313a20617070726f766520746f2063616c6c6572000000000000006044820152606401610862565b6001600160a01b03838116600081815260056020908152604080832094871680845294825291829020805460ff191686151590811790915591519182527f17307eab39ab6107e8899845ad3d59bd9653f200f220920489ca2b5937696c31910160405180910390a3505050565b6060816000036121eb5750506040805180820190915260018152600360fc1b602082015290565b8160005b811561221557806121ff81612eef565b915061220e9050600a83612f48565b91506121ef565b60008167ffffffffffffffff81111561223057612230612c98565b6040519080825280601f01601f19166020018201604052801561225a576020820181803683370190505b5090505b84156122c55761226f600183612f08565b915061227c600a86612fe2565b612287906030612edc565b60f81b81838151811061229c5761229c612e79565b60200101906001600160f81b031916908160001a9053506122be600a86612f48565b945061225e565b949350505050565b6114118282604051806020016040528060008152506123cd565b6122f2848484612400565b6122fe848484846125a7565b61231a5760405162461bcd60e51b815260040161086290612ff6565b50505050565b60006001600160e01b031982166380ac58cd60e01b148061235157506001600160e01b03198216635b5e139f60e01b145b8061076257506301ffc9a760e01b6001600160e01b0319831614610762565b6000805b83548110156123b9578284828154811061239057612390612e79565b9060005260206000200154036123a7579050610762565b806123b181612eef565b915050612374565b50509054919050565b6109978383836126a8565b6123d78383612760565b6123e460008484846125a7565b6109975760405162461bcd60e51b815260040161086290612ff6565b826001600160a01b031661241382610db4565b6001600160a01b0316146124775760405162461bcd60e51b815260206004820152602560248201527f4552433732313a207472616e736665722066726f6d20696e636f72726563742060448201526437bbb732b960d91b6064820152608401610862565b6001600160a01b0382166124d95760405162461bcd60e51b8152602060048201526024808201527f4552433732313a207472616e7366657220746f20746865207a65726f206164646044820152637265737360e01b6064820152608401610862565b6124e48383836123c2565b6124ef600082611ed1565b6001600160a01b0383166000908152600360205260408120805460019290612518908490612f08565b90915550506001600160a01b0382166000908152600360205260408120805460019290612546908490612edc565b909155505060008181526002602052604080822080546001600160a01b0319166001600160a01b0386811691821790925591518493918716917fddf252ad1be2c89b69c2b068fc378daa952ba7f163c4a11628f55a4df523b3ef91a4505050565b60006001600160a01b0384163b1561269d57604051630a85bd0160e11b81526001600160a01b0385169063150b7a02906125eb903390899088908890600401613048565b6020604051808303816000875af1925050508015612626575060408051601f3d908101601f1916820190925261262391810190613085565b60015b612683573d808015612654576040519150601f19603f3d011682016040523d82523d6000602084013e612659565b606091505b50805160000361267b5760405162461bcd60e51b815260040161086290612ff6565b805181602001fd5b6001600160e01b031916630a85bd0160e11b1490506122c5565b506001949350505050565b6001600160a01b038316612703576126fe81600880546000838152600960205260408120829055600182018355919091527ff3f7a9fe364faab93b216da50a3214154f22a0a2b415b23a84c8169e8b636ee30155565b612726565b816001600160a01b0316836001600160a01b03161461272657612726838261289f565b6001600160a01b03821661273d576109978161293c565b826001600160a01b0316826001600160a01b0316146109975761099782826129eb565b6001600160a01b0382166127b65760405162461bcd60e51b815260206004820181905260248201527f4552433732313a206d696e7420746f20746865207a65726f20616464726573736044820152606401610862565b6127bf81611eb4565b1561280c5760405162461bcd60e51b815260206004820152601c60248201527f4552433732313a20746f6b656e20616c7265616479206d696e746564000000006044820152606401610862565b612818600083836123c2565b6001600160a01b0382166000908152600360205260408120805460019290612841908490612edc565b909155505060008181526002602052604080822080546001600160a01b0319166001600160a01b03861690811790915590518392907fddf252ad1be2c89b69c2b068fc378daa952ba7f163c4a11628f55a4df523b3ef908290a45050565b600060016128ac846111fd565b6128b69190612f08565b600083815260076020526040902054909150808214612909576001600160a01b03841660009081526006602090815260408083208584528252808320548484528184208190558352600790915290208190555b5060009182526007602090815260408084208490556001600160a01b039094168352600681528383209183525290812055565b60085460009061294e90600190612f08565b6000838152600960205260408120546008805493945090928490811061297657612976612e79565b90600052602060002001549050806008838154811061299757612997612e79565b60009182526020808320909101929092558281526009909152604080822084905585825281205560088054806129cf576129cf612fcc565b6001900381819060005260206000200160009055905550505050565b60006129f6836111fd565b6001600160a01b039093166000908152600660209081526040808320868452825280832085905593825260079052919091209190915550565b6001600160e01b031981168114611e8c57600080fd5b600060208284031215612a5757600080fd5b813561155d81612a2f565b60005b83811015612a7d578181015183820152602001612a65565b50506000910152565b60008151808452612a9e816020860160208601612a62565b601f01601f19169290920160200192915050565b60208152600061155d6020830184612a86565b600060208284031215612ad757600080fd5b5035919050565b80356001600160a01b0381168114612af557600080fd5b919050565b60008060408385031215612b0d57600080fd5b612b1683612ade565b946020939093013593505050565b8015158114611e8c57600080fd5b600060208284031215612b4457600080fd5b813561155d81612b24565b600080600060608486031215612b6457600080fd5b612b6d84612ade565b9250612b7b60208501612ade565b9150604084013590509250925092565b60008060408385031215612b9e57600080fd5b50508035926020909101359150565b600060208284031215612bbf57600080fd5b61155d82612ade565b600060208284031215612bda57600080fd5b813561ffff8116811461155d57600080fd5b60008060208385031215612bff57600080fd5b823567ffffffffffffffff80821115612c1757600080fd5b818501915085601f830112612c2b57600080fd5b813581811115612c3a57600080fd5b8660208260051b8501011115612c4f57600080fd5b60209290920196919550909350505050565b60008060408385031215612c7457600080fd5b612c7d83612ade565b91506020830135612c8d81612b24565b809150509250929050565b634e487b7160e01b600052604160045260246000fd5b60008060008060808587031215612cc457600080fd5b612ccd85612ade565b9350612cdb60208601612ade565b925060408501359150606085013567ffffffffffffffff80821115612cff57600080fd5b818701915087601f830112612d1357600080fd5b813581811115612d2557612d25612c98565b604051601f8201601f19908116603f01168101908382118183101715612d4d57612d4d612c98565b816040528281528a6020848701011115612d6657600080fd5b82602086016020830137600060208483010152809550505050505092959194509250565b600060208284031215612d9c57600080fd5b813563ffffffff8116811461155d57600080fd5b60008060408385031215612dc357600080fd5b612dcc83612ade565b9150612dda60208401612ade565b90509250929050565b600181811c90821680612df757607f821691505b602082108103612e1757634e487b7160e01b600052602260045260246000fd5b50919050565b6020808252818101527f4f776e61626c653a2063616c6c6572206973206e6f7420746865206f776e6572604082015260600190565b6020808252600d908201526c546f6b656e202165786973747360981b604082015260600190565b634e487b7160e01b600052603260045260246000fd5b6020808252601f908201527f5265656e7472616e637947756172643a207265656e7472616e742063616c6c00604082015260600190565b634e487b7160e01b600052601160045260246000fd5b8082018082111561076257610762612ec6565b600060018201612f0157612f01612ec6565b5060010190565b8181038181111561076257610762612ec6565b808202811582820484141761076257610762612ec6565b634e487b7160e01b600052601260045260246000fd5b600082612f5757612f57612f32565b500490565b6001600160a01b039384168152919092166020820152604081019190915260600190565b600060208284031215612f9257600080fd5b815161155d81612b24565b60008351612faf818460208801612a62565b835190830190612fc3818360208801612a62565b01949350505050565b634e487b7160e01b600052603160045260246000fd5b600082612ff157612ff1612f32565b500690565b60208082526032908201527f4552433732313a207472616e7366657220746f206e6f6e20455243373231526560408201527131b2b4bb32b91034b6b83632b6b2b73a32b960711b606082015260800190565b6001600160a01b038581168252841660208201526040810183905260806060820181905260009061307b90830184612a86565b9695505050505050565b60006020828403121561309757600080fd5b815161155d81612a2f56fea264697066735822122012900adb7079aa6f6d65cfee57117321dd4ce7fefef16c41a1e782e8fda46bb064736f6c63430008130033","linkReferences":{}},"methodIdentifiers":{"addValidValues(uint256)":"c8a4ee9f","approve(address,uint256)":"095ea7b3","balanceOf(address)":"70a08231","buy(uint256,uint256)":"d6febde8","buyFee()":"47062402","canBuy()":"ff65226c","canClaim()":"6dc7a627","canTrade()":"2f05205c","claim(uint256[])":"6ba4c138","feesCollector()":"9cf160f6","fundsCollector()":"3a8c3338","fundsToken()":"63f04b15","getApproved(uint256)":"081812fc","isApprovedForAll(address,address)":"e985e9c5","listTokensOnSale(uint256)":"505546e7","maxBatchCount()":"637dd781","maxValueToRaise()":"7b25f352","name()":"06fdde03","owner()":"8da5cb5b","ownerOf(uint256)":"6352211e","profitToPay()":"fcad5ce3","putOnSale(uint256,uint256)":"36f7992b","renounceOwnership()":"715018a6","safeTransferFrom(address,address,uint256)":"42842e0e","safeTransferFrom(address,address,uint256,bytes)":"b88d4fde","setApprovalForAll(address,bool)":"a22cb465","setBuyFee(uint16)":"70c47671","setCanBuy(bool)":"2c06862b","setCanClaim(bool)":"c503101e","setCanTrade(bool)":"0f959bb7","setFeesCollector(address)":"373071f2","setFundsCollector(address)":"e24b7139","setFundsToken(address)":"7198ba74","setMaxBatchCount(uint16)":"432bd3f8","setMaxValueToRaise(uint256)":"c6584081","setProfitToPay(uint32)":"d5d603f6","setTradeFee(uint16)":"9fdccfb8","supportsInterface(bytes4)":"01ffc9a7","symbol()":"95d89b41","tokenByIndex(uint256)":"4f6ccce7","tokenOfOwnerByIndex(address,uint256)":"2f745c59","tokenURI(uint256)":"c87b56dd","tokensOnSale(uint256)":"308b4c97","totalSupply()":"18160ddd","totalValue()":"d4c3eea0","trade(uint256)":"df1dd826","tradeFee()":"24bcdfbd","transferFrom(address,address,uint256)":"23b872dd","transferOwnership(address)":"f2fde38b","validValues(uint256)":"dc62c704","values(uint256)":"5e383d21"},"id":40}